{
  "_format": "hh-sol-artifact-1",
  "contractName": "ZKPStorage",
  "sourceName": "contracts/ZKPStorage.sol",
  "abi": [
    {
      "inputs": [
        {
          "internalType": "string",
          "name": "_verificationKey",
          "type": "string"
        },
        {
          "internalType": "string",
          "name": "_publicData",
          "type": "string"
        },
        {
          "internalType": "string",
          "name": "_proof",
          "type": "string"
        }
      ],
      "stateMutability": "nonpayable",
      "type": "constructor"
    },
    {
      "anonymous": false,
      "inputs": [
        {
          "indexed": true,
          "internalType": "uint256",
          "name": "userId",
          "type": "uint256"
        }
      ],
      "name": "BlockStored",
      "type": "event"
    },
    {
      "inputs": [
        {
          "internalType": "uint256",
          "name": "userId",
          "type": "uint256"
        }
      ],
      "name": "getBlockData",
      "outputs": [
        {
          "internalType": "string",
          "name": "",
          "type": "string"
        },
        {
          "internalType": "string",
          "name": "",
          "type": "string"
        },
        {
          "internalType": "string",
          "name": "",
          "type": "string"
        }
      ],
      "stateMutability": "view",
      "type": "function"
    }
  ],
  "bytecode": "0x608060405234801561001057600080fd5b50604051610a2e380380610a2e83398181016040528101906100329190610250565b6040518060600160405280848152602001838152602001828152506000806001815260200190815260200160002060008201518160000190816100759190610518565b50602082015181600101908161008b9190610518565b5060408201518160020190816100a19190610518565b5090505060017f039d1c10b46e4741b6eded7ea3f76af147e26cc9a3a2b76d7e161ee965c1920360405160405180910390a25050506105ea565b6000604051905090565b600080fd5b600080fd5b600080fd5b600080fd5b6000601f19601f8301169050919050565b7f4e487b7100000000000000000000000000000000000000000000000000000000600052604160045260246000fd5b610142826100f9565b810181811067ffffffffffffffff821117156101615761016061010a565b5b80604052505050565b60006101746100db565b90506101808282610139565b919050565b600067ffffffffffffffff8211156101a05761019f61010a565b5b6101a9826100f9565b9050602081019050919050565b60005b838110156101d45780820151818401526020810190506101b9565b60008484015250505050565b60006101f36101ee84610185565b61016a565b90508281526020810184848401111561020f5761020e6100f4565b5b61021a8482856101b6565b509392505050565b600082601f830112610237576102366100ef565b5b81516102478482602086016101e0565b91505092915050565b600080600060608486031215610269576102686100e5565b5b600084015167ffffffffffffffff811115610287576102866100ea565b5b61029386828701610222565b935050602084015167ffffffffffffffff8111156102b4576102b36100ea565b5b6102c086828701610222565b925050604084015167ffffffffffffffff8111156102e1576102e06100ea565b5b6102ed86828701610222565b9150509250925092565b600081519050919050565b7f4e487b7100000000000000000000000000000000000000000000000000000000600052602260045260246000fd5b6000600282049050600182168061034957607f821691505b60208210810361035c5761035b610302565b5b50919050565b60008190508160005260206000209050919050565b60006020601f8301049050919050565b600082821b905092915050565b6000600883026103c47fffffffffffffffffffffffffffffffffffffffffffffffffffffffffffffffff82610387565b6103ce8683610387565b95508019841693508086168417925050509392505050565b6000819050919050565b6000819050919050565b600061041561041061040b846103e6565b6103f0565b6103e6565b9050919050565b6000819050919050565b61042f836103fa565b61044361043b8261041c565b848454610394565b825550505050565b600090565b61045861044b565b610463818484610426565b505050565b5b818110156104875761047c600082610450565b600181019050610469565b5050565b601f8211156104cc5761049d81610362565b6104a684610377565b810160208510156104b5578190505b6104c96104c185610377565b830182610468565b50505b505050565b600082821c905092915050565b60006104ef600019846008026104d1565b1980831691505092915050565b600061050883836104de565b9150826002028217905092915050565b610521826102f7565b67ffffffffffffffff81111561053a5761053961010a565b5b6105448254610331565b61054f82828561048b565b600060209050601f8311600181146105825760008415610570578287015190505b61057a85826104fc565b8655506105e2565b601f19841661059086610362565b60005b828110156105b857848901518255600182019150602085019450602081019050610593565b868310156105d557848901516105d1601f8916826104de565b8355505b6001600288020188555050505b505050505050565b610435806105f96000396000f3fe608060405234801561001057600080fd5b506004361061002b5760003560e01c80631c9ab3ad14610030575b600080fd5b61004a60048036038101906100459190610296565b610062565b60405161005993929190610353565b60405180910390f35b60608060606000806000868152602001908152602001600020604051806060016040529081600082018054610096906103ce565b80601f01602080910402602001604051908101604052809291908181526020018280546100c2906103ce565b801561010f5780601f106100e45761010080835404028352916020019161010f565b820191906000526020600020905b8154815290600101906020018083116100f257829003601f168201915b50505050508152602001600182018054610128906103ce565b80601f0160208091040260200160405190810160405280929190818152602001828054610154906103ce565b80156101a15780601f10610176576101008083540402835291602001916101a1565b820191906000526020600020905b81548152906001019060200180831161018457829003601f168201915b505050505081526020016002820180546101ba906103ce565b80601f01602080910402602001604051908101604052809291908181526020018280546101e6906103ce565b80156102335780601f1061020857610100808354040283529160200191610233565b820191906000526020600020905b81548152906001019060200180831161021657829003601f168201915b5050505050815250509050806000015181602001518260400151935093509350509193909250565b600080fd5b6000819050919050565b61027381610260565b811461027e57600080fd5b50565b6000813590506102908161026a565b92915050565b6000602082840312156102ac576102ab61025b565b5b60006102ba84828501610281565b91505092915050565b600081519050919050565b600082825260208201905092915050565b60005b838110156102fd5780820151818401526020810190506102e2565b60008484015250505050565b6000601f19601f8301169050919050565b6000610325826102c3565b61032f81856102ce565b935061033f8185602086016102df565b61034881610309565b840191505092915050565b6000606082019050818103600083015261036d818661031a565b90508181036020830152610381818561031a565b90508181036040830152610395818461031a565b9050949350505050565b7f4e487b7100000000000000000000000000000000000000000000000000000000600052602260045260246000fd5b600060028204905060018216806103e657607f821691505b6020821081036103f9576103f861039f565b5b5091905056fea2646970667358221220951fb67bbd26924d9e9db03d798d174f45e53a7ca0608709f95d62bd35cbdc7f64736f6c634300081c0033",
  "linkReferences": {},
  "deployedLinkReferences": {}
}